:0400000002005B326D
:01000B0032C2
:0100130032BA
:01001B0032B2
:0100230032AA
:01002B0032A2
:01003300329A
:03003B000203C8F5
:030043000200DDDB
:01004B003282
:0300530002026145
:0300C300020056E2
:030056000204158C
:2000C60075A15575A1AA43B1102243D104900002120A3B53D1FB22C020C0E0C0F0C082C055
:2000E60083C007C006C005C004C003C002C001C000C0D075D000120E4B75D008D0D0D0005E
:20010600D001D002D003D004D005D006D007D083D082D0F0D0E0D02032781CE630E20F78C3
:200126001CE630E309781CE654FBF60200D022C01F85811FAD82AE83AFF0E51F24FDF8B612
:200146000841C007C006C00512011FD005D006D007781CE64402F6E51F24FDF886037C0072
:20016600C003C004C005C006C00790010075F000123220E58124FBF581E51F24FDF886D3D5
:2001860053D2FCD01F22C01F85811FAD82AE83AFF0C007C006C00512011FD005D006D0071E
:2001A600781CE64402F6E51F24FDF886037C00C003C004C005C006C00790014075F0001240
:2001C6003220E58124FBF581E51F24FDF886D553D4FCD01F22C01F85811FAD82AE83AFF01D
:2001E600E51F24FDF8E624BF5002806C781CE64402F69001C0743FF0E51F24FDF886037C09
:2002060000C003C004C005C006C0079001C175F000123220E58124FBF581E51F24FDF88646
:20022600067F00743EC39EFCE49FFD74412EFEE43FFFEE2480FEEF3401FF7B00C004C005EA
:20024600E4C0E08E828F838BF01232B315811581158175D74053D6FCD01F22C020C0E0C0BC
:20026600F0C082C083C007C006C005C004C003C002C001C000C0D075D00030C003120C43BE
:20028600D0D0D000D001D002D003D004D005D006D007D083D082D0F0D0E0D0203275A1557A
:2002A60075A1AA53B1FE75A10022900182E0FF0F0F900181E0FEBEF026BF0223C0071202AB
:2002C600A375E20075D18090000A120A3B90338AE493F8740193F5838882120059D007C01F
:2002E6000790018175F000120CAE158122E5DB9000C0E0F582020C9F75A15575A1AA43B1C3
:200306000175A10075FF002275FF00227E007F00C3EE9403EF648094805021EE2EFCEF33BD
:20032600EC2410F98704098705190CBC00010DA70409A705190EBE00D70F80D4227E007FF1
:2003460000C3EE9403EF648094805075EE2EFCEF33EC2410F9870409870519EE2EFAEF33DF
:20036600FBEA2AFAEB33FBEA248CF582EB3433F583C006C007E493FEA3E493FFC3EC9EED25
:200386009FD007D0064032770009770019EA248CFAEB3433FB8A828B83A3A3E493FCA3E44E
:2003A60093FDC007C006C005C0048C828D83120059D004D005D006D0070EBE00010F0203D1
:2003C6004722C020C0E0C0F0C082C083C007C006C005C004C003C002C001C000C0D075D008
:2003E6000075C300120312D0D0D000D001D002D003D004D005D006D007D083D082D0F0D027
:20040600E0D02032AF82781CEF13E692E2F622120A07900005120A3B120B43900005120A7B
:200426003BD2E91209A31202FE122CF7D2AF75D30075D50075D70075DF00AF92530720E568
:0D04460092FEC39FF592C29512034380FB06
:0E338A000038F4010E030100F00B0100FA2CD4
:0900B400781CE64410F6751D00ED
:2004530022781CE6C4035407FF601ABF020122BF040A75DC02781CE6541FF62275DC02787E
:200473001CE6541FF622781CE6C4035407FFBF000122BF01028008BF03028063020511E571
:20049300167008781CE6541F4480F6C3E5169408920040067E087F008004AE167F008E0583
:2004B3007F00AA19AB1AAC1BC006C005C007C002C003C00490000075F000123220E58124DD
:2004D300FBF581D006E516C39EF516EE2519F519E4351AF51A8EDDAEDC6306408EDC22E5D0
:2004F30018600EE5E35480FFE518FE4FF5E375180075DD0075DC02781CE6541FF62275DC1E
:2005130002781CE6541FF6227408B5DB02800475DCCF227F00900006E0FDA3E0FEC374FF44
:200533009DE49E50067DFF7E008008900006E0FDA3E0FE8D16900000E05460600302079EEC
:20055300900001E0FE24F5500302079AEE240A83F582EE240F83F583E47374209AC79ABC36
:20057300839ACDE9060706070607050507050506900004E0FE900002E0FD900003E0FC7489
:2005930019C0E07400C0E07440C0E0C006C0058C8212129DAE82E58124FBF5818E07781C79
:2005B300E6541F4420F60207E2900002E0F518781CE6541F4460F60207E2900000E517F01D
:2005D300751900751A00751B007F01781CE6541F4420F60207E2900002E0F51724FFE433F1
:2005F300FE781C13E692E0F6781CE6541F4460F60207E2900000E4F0751900751A00F51BF2
:200613007F01781CE6541F4420F60207E2900000E0541FFE6073BE020280030206B89000CC
:2006330004E0FEBE01028058BE0202804EBE03028044BE0402803ABE8102802BBE820280E9
:200653001CBE8302800DBE843C74BC55DE4402F5DE805674BC55D64402F5D6804C74BC550E
:20067300D44402F5D4804274BC55D24402F5D2803853DE73803353D673802E53D4738029C2
:2006930053D273802475DCCF22900002E0FDA3E0FEBD0105BE0002800475DCCF22781CE616
:2006B30054F7F6800475DCCF22781CE6541F4460F60207E2900000E0541FFE607ABE020231
:2006D3008003020766900002E0FDA3E04D600475DCCF22900004E0FDA3E0FEBD0205BE00BC
:2006F300028046BD8105BE00028034BD8205BE00028022BD8305BE00028010BD8435BE00F9
:200713003274BF55DE4403F5DE804C74BF55D64403F5D6804274BF55D44403F5D48038747E
:20073300BF55D24403F5D2802E747F55D4440CF5D4802475DCCF22900002E0FDA3E0FEBD3C
:200753000105BE0002800475DCCF22781CE64408F6800475DCCF22781CE6541F4460F68071
:200773006E781CE630E3067D027E0080047D007E00900000EDF0900001E4F07F02781CE61C
:20079300541F4420F6804875DCCF22900000E0C4035403FEBE013490000075F0001208AE33
:2007B300AE828E07BFFF0475DCCF22EF600A781CE6541F4460F68017751900751A00751B39
:2007D30000781CE6541F4420F6800475DCCF22781CE6C4035407FEBE0102800ABE036C7572
:2007F300DD0075DCC022C3EF95164002AF168F16C3E5169408920040067E087F008004AE64
:20081300167F008E057F00AA19AB1AAC1BC006C005C007C002C003C00490000075F000122D
:200833003220E58124FBF581D006E516C39EF516EE2519F519E4351AF51A8EDD75DCC0E53E
:20085300167008781CE6541F4480F62275D30074FC55D24402F5D2781CE654FDF62275D515
:200873000074FC55D44402F5D4781CE654FDF62275D70074FC55D64402F5D6781CE654FD17
:20089300F62275DF0074FC55DE4402F5DEAEDE6306408EDE781CE654FDF622AD82AE83AF8A
:2008B300F074042DFAE43EFB8F048A828B838CF0123325FC900000E0541FFB0DBD00010E33
:2008D3008D828E838FF0123325FFBF0102801EBF0202804CBF03028057BF09028071BF0AEF
:2008F30003020975BF0B0302098302099BEC600302099FBB0102800302099F7408C0E0E47D
:20091300C0E07400C0E07401C0E0E4C0E090000075F000123220E58124FBF5817582082202
:20093300EC7069BB0166900000E51DF075820122EC7059BB0156781CE630E4067E017F00C8
:2009530080047E007F00900000EEF075820122EC703ABB0137900000E09000C0F01202F33B
:20097300802AEC7027BB0124900003E0F51D801CEC7019BB0116900002E024FFE433FF78CC
:200993001C13E692E4F680047582FF2275820022C2EA75E2007E007F008EEC8FED43EA0CDF
:2009B30075DC027EC07F008EEE8FEF74EF55EA44C0F5EA75D2127E407F018EE48FE574FEA6
:2009D30055EB4404F5EB75D4127E807F018EE68FE774EF55EB44C0F5EB75D61275DE12751B
:1409F300E30075D18075E22943D10175D8FF75E107D2EA222B
:200A070075A15575A1AA74F855B94406F5B975A10022C29FD29EC29DC2CDC2CC43878074EF
:200A27000F55894420F58943C9A0758DE6D28ED299D29C22AE82AF838E048F051EBEFF018D
:200A47001FEC4D600CE5C330E7FBE5C330E7E980F922C01F85811FC082C083C0F07B007C9E
:200A670000E51F24FDF886027F00C3EB9AEC64808FF063F08095F0503DA81F08EB26FAEC09
:200A87000836FE0886078A828E838FF0123325FA7F00C004C003C002C0077498C0E074339C
:200AA700C0E0123117E58124FCF581D003D0040BBB00AE0C80AB851F81D01F22AE82AF834F
:1A0AC70010990280FB8E998E828F832210980280FBAE997F008E828F832255
:043398002578200074
:0300BD00752700A4
:200AE1008582C110C10280FB2210C00280FB85C18222C01F85811FC082C083C0F07C007A57
:200B0100007B00E51F24FDF886067F00C3EA9EEB64808FF063F08095F0501FA81F08EA26F2
:200B2100FDEB0836FE0886078D828E838FF01233252CFC0ABA00CC0B80C98C82851F81D0E3
:200B41001F22C2C7D2C5D2C475C2F3D2EC22AF221FC00790020075F000120AF3AF8215810F
:200B6100AE221EEE3395E0FDEE2400F582ED3402F583E0FEEFB50651900200E0FFBF800046
:200B81004015747F5FFEC00690020175F0001201DB158175250122BF4000402D900201E0D1
:200BA100FE53073FEE7011C00790020275F0001201351581752501220FC00790020175F005
:200BC1000012018C1581752501227F10781CE630E008781CE620E2027F14781CE630E4035F
:200BE100430708E52560034307018F82020AE17401B52108E523B52603752100E5246006AE
:200C0100752400120B4FE5217034E52760247F00C3EF95275017EF2440F582E43402F583E4
:200C2100E0F582C007120AE1D0070F80E3752700800C781CE620E106120BCB75250085237C
:200C41002622120AEAAF82E4B5210280077401B5214B802CBF40004044BF80009200400AF1
:200C61008F06747F5E2402FE80088F05743F5D2403FE8E22752301900200EFF075210122A5
:200C8100AE230523EE2400F582E43402F583EFF0C3E5239522400675210075240122AF8215
:200CA100741F5F2420900240F075270122C01F85811FC082C083C0F0E51F24FDF886047428
:200CC100802C900240F07B00E51F24FDF8C3EB965033C0048B020AEA3395E0FCEA2440FA15
:200CE100EC3402FCA81F08EB26FDE40836FE0886078D828E838FF0123325FD8A828C83F032
:200D01000BD00480C3EC04FFFD3395E0FEED2440FDEE3402FEC006C005C004C007900240C6
:200D210075F000120AF3AF821581D004D005D0068D828E83EFF074022CF527851F81D01F27
:010D4100228F
:19339C00191A1B1C1213171615141D070608090A0B050C0D0E0F04101183
:200D4200AFD953070FADD95305307E00BD0005BE00028043BD1006BE0003020DE7BD200563
:200D6200BE0002800BBD3005BE00028051020E0CEF75F002A424BFF582743335F0F583E40B
:200D820093FDA3E493FEC006C0058D828E83120059D005D0068073EF75F002A424B5F582AB
:200DA200743335F0F583E493FDA3E493FEC006C0058D828E83120059D005D006804CEF7570
:200DC200F002A424C9F582743335F0F583E493FDA3E493FEC006C0058D828E83120059D061
:200DE20005D0068025EF75F002A424D3F582743335F0F583E493FEA3E493FFC007C0068E1C
:200E0200828F83120059D006D007C2D92275DC0275D21275D41275D61275DE1275E300C284
:200E2200DAC2D9C2D8781CE654FEF6781CE64410F6781CE6541FF622C2DAE5DA0303540160
:1F0E420024FFE433F58202040A30D903020D4230D803020E0F30DA03020E3A75D8FF2284
:2033B5005404F3025304B002D22C79045F087108830895081B05530453045304530453044C
:0833D500530453045304530494
:200E6100C01F85811FC082C083C0F005810581A81F0886820886830886F012330DAB82E562
:200E81001F2404F8A603E51F2404F8E626FC2402FA900280F09002817403F0E51F2405F87C
:200EA1007600E51F2405F8E51F2404F9C3E697505EC004E51F2405F886040CECFB3395E075
:200EC100FFEB2BFBEF33FFEB2480FBEF3402FFA81F08E51F2405F9E726FAE40836FD088689
:200EE100068A828D838EF0123325FA8B828F83F0EC2CFC0CEC3395E0FFEC2480F582EF3401
:200F010002F583E4F0E51F2405F806D004809374022CF582851F81D01F22C01F85811FC05D
:200F210082C083C0F0E5812405F5817C00E51F2405F876FC08763FE51F2405F88606088627
:200F410007C374FF9E743F9F5003021038E51F2405F88682088683E493FFE51F2407F8A645
:200F610007087600E51F2404F8EC04F6A81F08EC26FDE40836FE088607E51F2407F886029F
:200F810008E6C4CAC4540F6ACA540FCA6ACAFB8A828B83C007C006C005740FC0E0E4C0E00A
:200FA100123341AA82AB8315811581D005D006D007EA2449F582EB3436F583E4938D828EF3
:200FC100838FF01230FCE51F2404F88607E51F2404F8E604FCA81F08EF26FFE40836FE080A
:200FE1008605E51F2407F80886031886028A828B83C007C006C005C004740FC0E0E4C0E036
:20100100123341AA82AB8315811581D004D005D006D007EA2449F582EB3436F583E493FB60
:201021008F828E838DF01230FCE51F2405F806B600020806020F388C82851F81D01F22C094
:201041001FE581F51F2404F5817F029002817403F0A81F0876FC08763FA81F088603088679
:2010610004C374FF9B743F9C500302114BA81F088682088683E493FCE51F2403F8A604086A
:201081007600EF04FAEF2480FBE43402FCE51F2403F8860508E6C4CDC4540F6DCD540FCD8A
:2010A1006DCDFE8D828E83C004C003C002740FC0E0E4C0E0123341AD82AE8315811581D005
:2010C10002D003D004ED2449F582EE3436F583E4938B828C83F0EA04FEEA2480F582E43439
:2010E10002F583E4F08E050EED2480FDE43402FCE51F2403F80886031886028A828B83C02E
:2011010006C005C004740FC0E0E4C0E0123341AA82AB8315811581D004D005D006EA2449B6
:20112100F582EB3436F583E493FB8D828C83F0EE04FFEE2480F582E43402F583E4F0A81FC3
:201141000806B60002080602105A900280EFF08F82851F81D01F22C01F85811FAF827E0063
:201161007D00EF24FC500302123DEF2F2F9011727302117E0211AB0211DE021211E51F24DE
:20118100FBF886020886030886048A828B838CF0748A1230FCA374341230FCA3748012307C
:2011A100FC90348AE493FD02129890365975F080120E61AC828C05E51F24FBF8860208864F
:2011C100030886048A828B838CF074801230FCA374021230FCA3E41230FC02129890365DC6
:2011E10075F080120E61AC828C05E51F24FBF886020886030886048A828B838CF074801267
:2012010030FCA374021230FCA3E41230FC021298121040AC828C05E51F24FBF88602088687
:20122100030886048A828B838CF074801230FCA374021230FCA3E41230FC805BBF04004056
:2012410054BF0800504F1F1F1F1FED2EFEBE7A0040057582FF8042EE248EFBE43434FC8B9B
:20126100828C83E493FD8F021FEA70DEC005E51F24FBF886020886060886077D808A828E58
:20128100838FF0EB1230FCA3EC1230FCA3ED1230FCD00580027DFF8D82D01F22C01F8581AF
:2012A1001F058105810581AF82BF01028012BF02028037BF0302805CBF220280790213A844
:2012C100E51F24F9F886050886060886078D828E838FF074F61230FCA374331230FCA3745A
:2012E100801230FC7582120213ABE51F24F9F886050886060886078D828E838FF07408126C
:2013010030FCA374341230FCA374801230FC7582820213ABE51F24F9F8E6C0E008E6C0E0DC
:2013210008E6C0E0E51F24FDF886821211581581158115818074E51F24FCF8B61000506234
:20134100E51F24F9F8A91F09E6F70809E6F70809E6F7E51F24FCF8E675F004A4FBACF0241F
:2013610008F582EC3435F583E493FAA3E493FEA3E493FFA81F0886820886830886F0EA121C
:2013810030FCA3EE1230FCA3EF1230FCEB2408FBEC3435FC8B828C83A3A3A3E493FFF5822C
:1013A10080087582FF80037582FF851F81D01F220F
:2033DD00191A1B1C1213171615141D070608090A0B050C0D0E0F0410111201100100000017
:2033FD0008210414030000010203010902820004010080FA09040000020301010409210116
:20341D00010001223F000705810340000107050103400001090401000103000005092101C8
:20343D0001000122AD00070582034000010904020002030000060921010100012224000738
:20345D0005830340000107050303400001090403000203000007092101010001222100079D
:20347D0005840340000107050403400001040309041A0348004900440020004B00650079BF
:20349D000062006F0061007200640024034500780074007200610020004B00650079002073
:2034BD000053007500700070006F007200740028034C006F0074006C006100620020004306
:2034DD00006F006E0066006900670075007200610074006F007200140343004D00530049DC
:2034FD000053002D004400410050001835803F573580AD043680242836802105010906A102
:20351D0001050719E029E715002501750195088102950175088103950575010508190129B0
:20353D0005910295017503910395067508150025660507190029668100C005010980A10156
:20355D008502150126B700190129B7751095018100C0050C0901A10185031501269C021946
:20357D00012A9C02751095018100C005010906A101858075019508050719E029E7150025EB
:20359D0001810295D87501150025010507190029D78102C005010902A10185010901A10020
:2035BD00050919012905150025017501950581027503950181030501093009311581257F85
:2035DD0075089502810609381581257F35004500750895018106050C0A38021581257F75A0
:2035FD000895018106C0C00600FF0901A101853F953F75082501150109018102853F953FE2
:20361D0075082501150109019102C00600FF0901A101150026FF0075089540090181029518
:20363D00400901910295400901B102C0303132333435363738394142434445464C696E0079
:0A365D004B6E69676874313031006C
:2013B100AD82AE83AFF07405C0E0E4C0E07480C0E07436C0E07480C0E08D828E838FF0125D
:2013D1003220E58124FBF58175820522C01F85811FAF827E00BF0102803ABF0202803ABF26
:2013F1000302803ABF0402804BBF05030214BCBF06030214BCBFF0028050BFF1030214BC54
:20141100BFFD030214BCBFFE030214A2BFFF0280550214BC7E000214BC7E000214BCE51FA7
:2014310024FBF886820886830886F0120F1BAF828F068077E51F24FBF88682088683088632
:20145100F01213B1AF828F068061E51F24FBF886040886050886078C828D838FF07411120D
:2014710030FC7E018045E51F24FBF886040886050886078C828D838FF074401230FC0CBCC7
:2014910000010D8C828D838FF0E41230FC7E02801AE51F24FBF886040886050886078C8279
:2014B1008D838FF074011230FC7E018E82D01F22AD29AE2AAF2B8D828E838FF0123325FDAB
:2014D1007F0074012529FBE4352AFCAE2B8B828C838EF0123325FEE44205EE42078D828FA4
:2014F10083120A3BAD2CAE2DAF2E8D828E838FF0E41230FC90020122AD29AE2AAF2B8D8263
:201511008E838FF0123325FF601ABF01028015AD2CAE2DAF2E8D828E838FF074FF1230FC0F
:2015310090020122AD2CAE2DAF2E8D828E838FF0E41230FC90020122AD29AE2AAF2B8D8247
:201551008E838FF012332570047F018010AC29AD2AAE2B8C828D838EF0123325FFBF01189A
:201571009002C07401F0D290D29143920143930143920243930280027F00AC2CAD2DAE2EF3
:201591008C828D838EF0EF1230FC900101229002C0E4F05392FE5393FE5392FD5393FDAD5E
:2015B1002CAE2DAF2E8D828E838FF0E41230FC758201227401252CFDE4352DFEAF2E8D8268
:2015D1008E838FF0E41230FCAD2CAE2DAF2E8D828E838FF01230FC75820222C01FE581F585
:2015F1001F240AF581AD29AE2AAF2B8D828E838FF0123325FF74012529FCE4352AFDAE2BAF
:201611008C828D838EF0123325FE74022529FBE4352AFCAD2B8B828C838DF0123325FB746D
:20163100032529FAE4352AFCAD2B8A828C838DF0123325420374042529FAE4352AFCAD2B19
:201651008A828C838DF0123325420374052529FAE4352AFCAD2B8A828C838DF0123325FA5E
:2016710042038B05EE30E00AEF30E004D2918002C291EE30E10AEF30E104D2908002C290FE
:20169100ED700302173B8F0574015EFB7C00E51F2407F874025EF6087600EFC313FAE51F75
:2016B1002409F874045EF6087600E51F2404F8EF0303543FF6E51F2405F874205EF608767D
:2016D10000A81F08EFC4035407F6A81F080874805EF6087600EF235401FFEB4C600AA2914C
:2016F100E4335401FE6D70F2E51F2407F8E60846600AA290E4335401FE6A70DEE51F240956
:20171100F8E608466008E51F2404F8E670CCE51F2405F8E608466006A81F08E670BCA81F77
:201731000808E608466003EF70B0A291E433FF530701A290E433540125E04207AC2CAD2DA0
:20175100AE2E8C828D838EF0EF1230FC900601851F81D01F22AD2CAE2DAF2E8D828E838FC6
:20177100F0E41230FC90040122AD29AE2AAF2B8D828E838FF0123325FD0529E4B52902050A
:201791002A7F00ED4F7003FD7F01C007C005C029C02AC02B8D828F83122D4F158115811529
:2017B10081D005D007AB2CAC2DAE2E8B828C838EF0E41230FC74072DFDE43FC423CDC42340
:2017D100541F6DCD541FCD6DCDFF0DBD00010F8D077D004305018D828F8322AD29AE2AAFFE
:2017F1002B8D828E838FF0123325FD74035D049002D7F0ED30E2067E017F0080047E007FF2
:20181100009002D8EEF0AD2CAE2DAF2E8D828E838FF0E41230FC90010122AD2CAE2DAF2ED8
:201831008D828E838FF0E41230FC052CB52C02052D7F017E01AB29AC2AAD2B8B828C838D66
:20185100F0123325FD0529E4B52902052A8D041DEC70030218EDAA29AB2AAC2B8A828B8352
:201871008CF0123325FC0529E4B52902052A743F5CFB70027B407A0074072BFBE43AC423FD
:20189100CBC423541F6BCB541FCB6BCBC007C006C005C004C003C02CC02DC02EC029C02AF5
:2018B100C02B8C82122DB7E58124FAF581D003D004D005D006D007EC30E7100FEB252CF5B2
:2018D1002CE4352DF52DEB2EFE8082EB2529F529E4352AF52A0BEB2FFF02185E8F05E4FF7E
:2018F100FCEE4FF582EC4DF58322AD2CAE2DAF2E8D828E838FF074FF1230FC052CE4B52C7D
:2019110002052D7F01AC29AD2AAE2B8C828D838EF0123325FE0529E4B52902052A8E051EA7
:20193100ED6047AB29AC2AAD2B8B828C838DF0123325FB0529E4B52902052A743F5BFD70E6
:20195100027D407C0074072DFDE43CC423CDC423541F6DCD541FCD6DCDFCED2529F529E47B
:20197100352AF52A0DED2FFF80B38F067F0074014FF5828E8322AD29AE2AAF2B8D828E8353
:201991008FF0123325FDAC2CAE2DAF2E8C828E838FF074FF1230FC7F000DBD00010F8D0784
:2019B1007D004305018D828F8322AD2CAE2DAF2E8D828E838FF074FF1230FC90010122ADCB
:2019D10029AE2AAF2B8D828E838FF01233259002CBF074012529FDE4352AFEAF2B8D828E4D
:2019F100838FF0123325FD7F0074022529FBE4352AFCAE2B8B828C838EF0123325FEE442EF
:201A110005EE42079002CFEDF0EFA3F074032529FDE4352AFEAF2B8D828E838FF0123325D3
:201A3100FD7F0074042529FBE4352AFCAE2B8B828C838EF0123325FEE44205EE420790024A
:201A5100D1EDF0EFA3F0AD2CAE2DAF2E8D828E838FF0E41230FC90050122C01FE581F51FE2
:201A7100242BF581E51F2424F8A62908A62A08A62BE51F2413F87600E51F242AF87600E57E
:201A91001F2427F8A62C08A62D08A62E7402252CF52CE4352DF52D752800C200E51F241E55
:201AB100F8760074012529FBE4352AFDAF2B8B828D838FF0E51F2423F8123325F6E51F2468
:201AD10015F874012BF6E43D08F608A607E51F2414F8E51F241AF6E51F241FF8E51F241497
:201AF100F9C000E51F240FF8E7F6D000E51F2407F9E804F7E51F2414F9C000E51F2408F818
:201B1100E704F6D000E51F2405F9740228F7E51F2414F9C000E51F2409F8740227F6D000C7
:201B3100E51F2403F9740328F7E51F2414F9C000E51F2406F8740327F6D000A91F09A700E3
:201B5100E51F240AF9A700A91F0909A700E51F240CF9A700E51F240BF9A700E51F240DF94C
:201B7100A700E51F242BF97700E51F2423F9C000E51F2404F8E7F6D000E51F2404F9E77099
:201B910003022185E51F2415F987820987830987F0C000E51F240EF8123325F6A31919A7ED
:201BB1008209A783D000E51F240EF9E720E103021FDB200003021CC79002CFE0FBA3E0FAB8
:201BD100E51F240EF987045304117E00BC015ABE00578B078A05A91F0987027C007E40C0B3
:201BF10007C005C000C020C002C004C006E51F240EF98782122E97AE82158115811581D04B
:201C110020D000D005D007E51F242AF9A706E51F242AF9B702648F028D061FBFFF011DEAAE
:201C31004E6057E52860AF80518B078A05E51F240AF987027C007E40C007C005C000C00284
:201C5100C004C00675820E122E97AE82158115811581D000D005D007E51F242AF9A706E5C2
:201C71001F242AF9B702118F028D061FBFFF011DEA4E6004E52860B5C200E51F242AF9B782
:201C9100010280030221857B00BB04005028AF2CAD2DAC2EC000A81F0808EB26F9D00087CC
:201CB100068F828D838CF0EE1230FC052CE4B52C02052D0B80D3E51F240EF9E720E403029D
:201CD1001ED1E51F2415F987040987050987077E00BE04005020C000E51F2414F8EE26F966
:201CF100D0008C828D838FF0123325FAA3AC82AD83A7020E80DBE51F2415F9A70409A70559
:201D110009A7079002D1E0FFA3E0FDE51F240EF9E730E0709002CFE51F2410F9E0F7A3E0B7
:201D310009F7C007C005C000C020E4C0E0C0E0C0E0E51F240EF98782122E97AC82158115BA
:201D5100811581D020D000D005D007E51F242AF9A704E51F242AF9B7021DE51F2410F98720
:201D710002098706E51F2410F917B7FF020917EA4E6004E52860ABE51F242AF9B701028061
:201D910003022185C201E51F2418F9A70709A7059002CFE0FFA3E0FD88017C007E40C007DE
:201DB100C005C000C020C001C004C006E51F240EF98782122E97AE82158115811581D02071
:201DD100D000D005D007E51F242AF9A706E51F242AF9B702118F028D061FBFFF011DEA4E12
:201DF1006004E52860B2E51F242AF9B701028003021EB786069002D3E05206E51F240FF997
:201E110087018702EEB50203D38001C39202506DE51F2407F9870187069002D4E05206E5D0
:201E31001F2408F987018702EEB50203D38001C392025049E51F2405F9870187069002D5AE
:201E5100E05206E51F2409F987018702EEB50203D38001C392025025E51F2403F987018703
:201E7100069002D6E05206E51F2406F987018702EEB50203D38001C39202100202D202A296
:201E9100029201300220E51F2418F98702098706E51F2418F917B7FF020917EA4E6007E546
:201EB100287003021DA1300109E51F242AF9E74410F7E51F242AF9B70103021FD10221855F
:201ED1009002CFE0FAA3E0FEE51F240EF9E730E065300003021FD18A058E03C005C003C01D
:201EF10000C020E4C0E0C0E0C0E0E51F240EF98782122E97AC82158115811581D020D0006E
:201F1100D003D005E51F242AF9A704E51F242AF9B702118D048B071DBDFF011BEC4F600446
:201F3100E52860B7E51F242AF9B701028003022185D200021FD188078A058F027B007C4092
:201F5100C007C006C005C000C020C002C003C004E51F240EF98782122E97AC8215811581CC
:201F71001581D020D000D005D006D007E51F242AF9A704E51F242AF9B702118D038E041D2E
:201F9100BDFF011EEB4C6004E52860AEE51F242AF9B7010280030221857E00BE04005020BF
:201FB100AB2CAC2DAD2EEE2FF987028B828C838DF0EA1230FC052CE4B52C02052D0E80DB92
:201FD100E51F241EF9770002215220000302206F9002CFE0FEA3E0FF88058D027B007C40FD
:201FF100C007C006C005C000C020C002C003C00475820E122E97AC82158115811581D020D9
:20201100D000D005D006D007E51F242AF9A704E51F242AF9B702118E038F041EBEFF011F33
:20203100EB4C6004E52860B2E51F242AF9B7010280030221857F00BF04005020AB2CAC2D43
:20205100AE2EEF2DF987028B828C838EF0EA1230FC052CE4B52C02052D0F80DBC200E51FD9
:202071002415F987060987050987077C00BC04005020C000E51F240BF8EC26F9D0008E82E2
:202091008D838FF0123325FBA3AE82AD83A7030C80DBE51F2415F9A70609A70509A707E5F3
:2020B1001F240EF9E730E52F7F00BF0400501FEF24D3FDE43402FEC000E51F240CF8EF26ED
:2020D100F9D00087048D828E83ECF00F80DCE51F242AF97701806A9002CFE0FEA3E0FFE5E1
:2020F1001F240DF987037C007D40C007C006C000C020C003C004C005E51F240EF987821200
:202111002E97AD82158115811581D020D000D006D007E51F242AF9A705E51F242AF9B70290
:20213100118E048F051EBEFF011FEC4D6004E52860ADE51F242AF9B7013AE51F241EF977B2
:2021510001E51F242BF907E51F242BF9C000E51F2413F8E7F6D000E5287019E51F2404F973
:2021710017E51F2404F9C000E51F2423F8E7F6D000021B8AE51F2423F98707EF6040E51F56
:202191002415F987820987830987F0123325FEA31919A78209A783EE30E113EE30E41CE5B2
:2021B1001F2415F9740427F7E40937F7800DE51F2415F9740427F7E40937F71F80BDE51F38
:2021D100242AF9B7010280030222AE2000030222619002CFE0FEA3E0FF88058D027B007C1C
:2021F10040C007C006C005C002C003C00475820E122E97AC82158115811581D005D006D0AC
:2022110007E51F242AF8A604E51F242AF8B602118E038F041EBEFF011FEB4C6004E5286078
:20223100BAE51F242AF8B601747F00BF0400506DAB2CAC2DAE2EEF2DF987028B828C838E8B
:20225100F0EA1230FC052CE4B52C02052D0F80DBE51F241EF8E660459002CFE0FEA3E0FF37
:20227100C007C006E4C0E0C0E0C0E075820E122E97AD82158115811581D006D007E51F245A
:202291002AF8A605E51F242AF8B602118E048F051EBEFF011FEC4D6004E52860C3E51F2437
:2022B10027F886820886830886F0E51F2413F9E71230FCE51F2427F8740126FDE40836FEFF
:2022D1000886078D828E838FF0E51F242AF8E61230FCE51F2424F8E529C396FEE52A0896F5
:2022F1008E077E00E51F2427F8E52CC396FCE52D0896FDEC4EF582ED4FF583851F81D01FE7
:2023110022C01F85811F058105810581A81F08A62908A62A08A62B74012529FAE4352AFBAA
:20233100AC2B8A828B838CF0123325FF74012AFEE43BFDEF602A8E828D838CF0123325FB83
:20235100A3AE82AD83EB30E10DEB30E41074042EFEE43DFD800774042EFEE43DFD1F80D3D4
:20237100AA2CAB2DAF2E8A828B838FF0E41230FC04252CFAE4352DFBAF2E8A828B838FF000
:20239100E41230FCA81F08EEC396FEED08968E057E004306028E828D83851F81D01F229029
:2023B10002C0E0FFBF0109121A6BAE82AF83800B122312AC82AD838C068D078E828F83220F
:2023D100C01FE581F51F2416F581A81F08E4F608F6E51F2416F87600E51F240FF8A62C0887
:2023F100A62D08A62E7403252CF52CE4352DF52D75280074012529FBE4352AFCAD2B8B824D
:202411008C838DF0123325FA7F00E51F2406F8A60208A60774012BFAE43CFE8D078A828ED3
:20243100838FF0123325FF7A00E51F2406F8E6420208E64207E51F240AF8A60208A6077424
:20245100022BFBE43CFCE51F240AF8E6084670030227378B828C838DF0E51F240EF81233EA
:2024710025F6E51F2403F874012BF6E43C08F608A605E51F240EF8E620E1030225EEE51F75
:20249100240EF8E630E0669002CFE0FEA3E0FDC006C005C006C005E4C0E0C0E0C0E0E51F08
:2024B100240EF88682122E97AF82158115811581D005D006E51F2416F8A607E51F2416F84B
:2024D100B602028006D005D0068015D005D0068E028D071EBEFF011DEA4F6004E52860AFEA
:2024F100E51F2416F8B601028003022737E51F240CF8E4F608F6E51F240AF88605088604AE
:202511008D068C071DBDFF011CEE4F7003022729ED4C7010E51F240EF8E630E007E51F2480
:202531000EF8760E9002CFE51F2408F8E0F6A3E008F6E51F2412FB8B027E007F40C005C09C
:2025510004C003C002C006C007E51F240EF88682122E97AF82158115811581D003D004D0DD
:2025710005E51F2416F8A607E51F2416F8B6021DE51F2408F88602088607E51F2408F816D4
:20259100B6FF020816EA4F6004E52860AAE51F2416F8B6010280030227297E00BE0400504D
:2025B1002EE51F2403F8A62C08A62D08A62EEE2BF98707E51F2403F886820886830886F0D6
:2025D100EF1230FC052CE4B52C02052D0E80CDE51F240CF806B600020806022511E51F24E0
:2025F10012FFE51F2408F8A607E51F240CF8E4F608F6E51F240AF8E51F2406F9E6F70809A1
:20261100E6F7E51F2406F88602088605E51F2406F816B6FF020816EA4D70030226E2E51FC2
:202631002403F886030886040886067D00BD04005017ED2FF98B828C838EF0123325FAA360
:20265100AB82AC83A7020D80E4E51F2403F8A60308A60408A6069002CFE0FAA3E0FDE51F02
:202671002408F886037C007E40C007C005C002C003C004C006E51F240EF88682122E97AE0C
:2026910082158115811581D002D005D007E51F2416F8A606E51F2416F8B602118A048D0665
:2026B1001ABAFF011DEC4E6004E52860B1E51F2416F8B60171E51F240CF806B60002080606
:2026D100E51F240CF8A91F09E6F70809E6F70226139002CFE0FEA3E0FFC007C006E4C0E014
:2026F100C0E0C0E075820E122E97AD82158115811581D006D007E51F2416F8A605E51F2406
:2027110016F8B602218E048F051EBEFF011FEC4D6014E52860C3800EE51F240CF8A91F0938
:20273100E6F70809E6F7A81F088607E51F240FF886820886830886F0EF1230FCE51F240F37
:20275100F8740126FDE40836FE088607A81F080886048D828E838FF0EC1230FCE51F240FC2
:20277100F8740226FDE40836FE0886078D828E838FF0E51F2416F8E61230FCAF2CE51F2406
:202791000FF88602EFC39AF582851F81D01F229002C0E0FFBF01071223D1AF82803BAC2CDE
:2027B100AD2DAE2E8C828D838EF0E41230FC04252CFCE4352DFDAE2E8C828D838EF0E41292
:2027D10030FC7402252CFCE4352DFDAE2E8C828D838EF0E41230FC7F0374032529FCE435C0
:2027F1002AFDAE2B8C828D838EF012332530E10C8F057E008D8274044EF583227401252961
:20281100FCE4352AFDAE2B8C828D838EF0123325FC7E0074022529FAE4352AFBAD2B8A8232
:202831008B838DF0123325FDE44204ED4206EC2CFCEE33FEEC2CFCEE33FE74042CFCE43E0E
:202851008C06E4FCFDEF4204ED42068C828E832274012529FDE4352A7F007E40C005C00781
:20287100C006758200122E97158115811581AD2CAE2DAF2E8D828E838FF0E41230FC7582A8
:2028910001229002C0E0FFBF0107122861AF828013AC2CAD2DAE2E8C828D838EF074FF12FE
:2028B10030FC7F017E008F8274054EF58322AD2CAE2DAF2E8D828E838FF074FF1230FC90FA
:2028D100010122AD2CAE2DAF2E8D828E838FF074FF1230FC90010122C01F85811F858229FA
:2028F10085832A85F02BE51F24FBF8862C08862D08862EAD29AE2AAF2B8D828E838FF01278
:202911003325FDBD8000401AAD29AE2AAF2B8D828E838FF0123325FD246040061228BF0267
:202931002B4BAD29AE2AAF2B8D828E838FF0123325FDBDA000401AAD29AE2AAF2B8D828EA6
:20295100838FF0123325FD240140061228D4022B4BAD2CAE2DAF2EAA29AB2AAC2B8A828B65
:20297100838CF0123325FA8D828E838FF01230FC052CE4B52C02052DAD29AE2AAF2B8D8245
:202991008E838FF0123325FF0529E4B52902052AEF24E25003022B23EF240A83F582EF244A
:2029B1002283F583E473F3444E5CEFFC0923166876232323232382909EACC8D5E2232323B3
:2029D100232323BA292A2A2A2A2A2B2B2B2A2A2B2B2B2B2B2A2A2A2A2A2A2A2B2B2B2B2B1F
:2029F1002B2A7401252CFDE4352DFEAF2EAA29AB2AAC2B8A828B838CF0123325FAC005C08F
:202A110006C0078A821213DDAF821581158115817E00AB2CAC2DAD2E8F028B828C838DF0A4
:202A3100EA1230FC74022FFF74023EFE8F828E83022B4B121509AE82AF83022B3F121549FF
:202A5100AC82AD838C068D07022B3F12159FAD828D067F00022B3F1214C1AC82AD838C062B
:202A71008D07022B3F1215C4AD828D067F00022B3F1215ECAC82AD838C068D07022B3F1298
:202A91001766AC82AD838C068D07022B3F12177AAC82AD838C068D07022B3F1217ECAC82E2
:202AB100AD838C068D07022B3F12182BAC82AD838C068D07022B3F1218FBAC82AD838C06E9
:202AD1008D07806A121987AC82AD838C068D07805D1219BBAC82AD838C068D0780501219EF
:202AF100D0AC82AD838C068D0780431223B0AC82AD838C068D0780361227A0AC82AD838CCC
:202B1100068D078029122893AC82AD838C068D07801CE52C24FFFBE52D34FFFCAD2E8B821C
:202B31008C838DF074FF1230FC900101800C74012EFE74013FFF8E828F83D01F22C01FE5DE
:202B510081F51F2404F581AD82AE83AFF0A81F08123325F6A81F08B67F028003022C61E506
:202B71001F24FBF8A91F0909E6F70809E6F70809E6F774012DFAE43EFB8F04A81F080886D2
:202B9100820886830886F0A91F09E71230FCA81F0808E51F24FBF9740126F7E4083609F776
:202BB1000809E6F78A828B838CF0123325FFA81F080874012AF6E43B08F608A604E51F24B4
:202BD100FBF886020886030886048A828B838CF0EF1230FCE51F24FBF874012AF6E43B08AC
:202BF100F608A6047E027D028F028A041AEC605AC002C006C005C002E51F24FBF8E6C0E08E
:202C110008E6C0E008E6C0E0A81F080886820886830886F01228E9AB82AC83158115811559
:202C310081D002D005D006EB2EFEEC3DFD8C02A81F0808EA26F6E40836F6E51F24FBF8EBBF
:202C510026F6E40836F6D00280A08E828D83801FE51F24FBF8E6C0E008E6C0E008E6C0E0C1
:202C71008D828E838FF01228E9158115811581851F81D01F229002C0E4F09002C37404F0A6
:202C9100E4A3F0A3F0A3F09002CBF09002CF7464F0E4A3F09002D1F0A3F09002D3F09002CC
:202CB100D4F09002D5F09002D6F09002D704F09002D8E4F05392FE5393FE5392FD5393FD69
:012CD10022E0
:1E366700191A1B1C1213171615141D070608090A0B050C0D0E0F0410113032353400E5
:0300C000751E00AA
:202CD200E51E6009748065DE4408F5DE22E5DB700122900040E0FFBF07047528012285DB12
:202CF2001E63DE8022022C86E51E6050781CE620E14A7F00BF4000501A8F057E0074802D7A
:202D1200FDE43EFEED2400F582EE3400F583E4F00F80E17480C0E07400C0E0E4C0E0900062
:1D2D32004075F000122B4E158115811581781CE64402F675DF4053DEFC751E002266
:202D4F00C01F85811F058105810581AE82AF83E4FDFCE51F24FBF8A91F09E6F70809E6F7D8
:202D6F000809E6F78E028F031EBEFF011FEA4B6031EC7019A81F0886820886830886F01286
:202D8F003325FDA31818A68208A6837C08ED30E004D2908002C290C291D291EDC313FD1C56
:202DAF0080C2851F81D01F22C01F85811F0581AF82743F5FFE70027E40EF30E770E51F24F3
:202DCF00F8F88604088605088607EE7003022E927B007A08A81F08A606EA602FA81F08E679
:202DEF006029C004C005C007C291A290E433FF530701D291EBC313FDEF0354804DFB1AA804
:202E0F001F0816D007D005D00480CEA81F0886068AF005F0EB8002C313D5F0FBFA8C828D36
:202E2F00838FF01230FCA3AC82AD83809DE51F24FBF88604088605088607EE60468C828D29
:202E4F00838FF0123325FBA3AC82AD837A08A81F08A606EA60E4A81F08E660DEC004C00554
:202E6F00C007EB540124FF9290C291D291EBC313FB1AA81F0816A81F088606D007D005D0AF
:202E8F000480D01581D01F22C01F85811FC08205810581D290C291D291A81F08E6FE5401B6
:202EAF0024FF9290C291D291A81F08E6C313FD540124FF9290C291D291ED2EFEA81F08E662
:202ECF000303543FFD540124FF9290C291D291ED2EFDA81F08E6C423541FFE540124FF92CE
:202EEF0090C291D291EE2D540124FF9290C291D291C290C291D291D290C291D2919002D789
:202F0F00E0FEFDED6007C291D2911D80F6C291A290E433FD530501D291C291A290E433FC3D
:202F2F00530401D291EC2CFCED4204C291A290E433FD530501D291ED2D25E0FDEC4205BD1F
:202F4F0001028003023095A81F08E620E10302300EA81F08087600E51F2403F87600E51F32
:202F6F002403F8B6040050717E08EE6063C005C291A290E433FD74015DFCD291A81F08080B
:202F8F00EC26F6D005E51F24FBF8E60846603EC005E51F24FBF8E51F2403F9E726FAE40861
:202FAF0036FB0886078A828B838FF0123325C313FD8A828B838FF01230FCEC035480FC428E
:202FCF00058A828B838FF0ED1230FCD0051E809AE51F2403F806022F6DC291A290E433FFAA
:202FEF00530701D291A81F0808EF6630E0027D089002D7E0FFEF6063C291D2911F80F68E6E
:20300F0007EF6007C291D2911F80F67F007C00BC0400503BC005E51F24FBF8EC26FAE408DB
:20302F0036FB0886058A828B838DF0123325FE7A08D005EA6016EE5401FB24FF9290C29131
:20304F00D291EE2FFFEEC313FE1A80E70C80C0EF5401FF24FF9290C291D291A81F08E63030
:20306F00E70B9002C7E4F0A3F0A3F0A3F09002CBE0FF600CC290EF6007C291D2911F80F6CE
:20308F00D2908D828061BD02028003BD04479002D8E0FF6013A81F08E630E10C7C21EC600C
:2030AF0007C291D2911C80F69002D7E0FCEC6007C291D2911C80F6EF6015A81F08E620E1B8
:2030CF000EC2907F21EF6007C291D2911F80F6D2908D82801274212EFFEF6007C291D2916F
:0D30EF001F80F6D2908D82851F81D01F2298
:19368500191A1B1C1213171615141D070608090A0B050C0D0E0F04101197
:06008A00E478FFF6D8FD4A
:200068007900E94400601B7A0090369E78D975A002E493F2A308B8000205A0D9F4DAF27590
:02008800A0FFD7
:1B30FC0020F71130F6138883A88220F509F6A8837583002280FEF280F5F022D3
:20311700C01F85811FE51F24FDF8868318868218E493A324DB600C2425600512320580F04A
:2031370002321DD2D5E493A3C083C082B4731486F0188683188682181233256054A31232D2
:203157000580F5B4630818E6181232058043B46417E630E74618E6F42401F608E6F4340008
:20317700F6742D1232058033B4782D868318868218E41231F6E5831231F5E5831231F6E5C8
:20319700821231F5E5821231F630D5057430123205D082D083023127B475F6E6FA18E6F9D2
:2031B700187C107D271231E0FF7CE87D031231E0C4F5837C647D001231E04283E975F00AAE
:2031D70084C445F0F582EF80A97B000BC3E99CF9EA9DFA50F61BE92CF9EA3DFAEB22C454CF
:2031F7000F700320D51FC2D52490D43440D4C083C082C0F0F582E8C0E0120AC3D0E0F8D030
:09321700F0D082D08322D01F22E6
:200090007800E84400600A790075A000E4F309D8FC78D9E84402600C7903900000E4F0A392
:0400B000D8FCD9FAA5
:20322000C01FE581F51F2408F581AD82AE83AFF0E51F2406F8A60508A60608A607E51F2432
:20324000FBF8A91F09E6F70809E6F70809E6F7E51F24F9F8E51F2404F9E6F70809E6F7E503
:203260001F2404F88603088604E51F2404F816B6FF020816EB4C6028A81F0886820886833E
:203280000886F0123325FCA31818A68208A6838D828E838FF0EC1230FCA3AD82AE8380BF13
:1332A000E51F2406F886820886830886F0851F81D01F2228
:2032B300C01F85811FC082C083C0F0E51F24FBF88605088606E51F24FBF8E60846602AA807
:2032D3001F088602088603088604E51F24FDF886078A828B838CF0EF1230FCA3AA82AB839F
:1A32F3001DBDFF011EED4E70E8A81F0886820886830886F0851F81D01F229A
:02005900E4734E
:18330D00AA82AB831233256003A380F8C3E5829AF582E5839BF583228E
:0D005B0075812E123386E582600302005687
:1C33250020F71430F6148883A88220F507E6A88375830022E280F7E49322E022B7
:20334100E58124FEF88601188600E84960367A01E825E0F8E933400EF9E58298E5839940FD
:20336100030A80ECC3E913F9E813F8C3E58298F5F0E583994005F58385F082C3E913F9E82C
:0533810013F8DAE72259
:04338600758200222A
:00000001FF
